:020000040800F2
:1000000000A00020E1040008C1030008C7030008A5
:10001000CD030008D3030008D90300080000000046
:10002000000000000000000000000000DF030008E6
:10003000ED03000800000000FB03000809040008AD
:1000400031050008310500083105000831050008B8
:1000500031050008310500083105000831050008A8
:100060003105000831050008310500083105000898
:100070003105000831050008310500083105000888
:1000800031050008310500083105000800000000B6
:100090000000000000000000000000003105000822
:1000A0003105000831050008310500083105000858
:1000B00031050008000000000000000031050008C4
:1000C0003105000831050008310500083105000838
:1000D0003105000831050008310500083105000828
:1000E0003105000831050008000000000000000094
:1000F0000000000000000000000000000000000000
:1001000000000000000000000000000000000000EF
:1001100000000000000000001504000800000000BE
:1001200031050008310500083105000831050008D7
:100130003105000800000000000000000000000081
:1001400031050008310500083105000831050008B7
:1001500031050008310500083105000831050008A7
:100160003105000831050008000000000000000013
:100170000000000031050008000000000000000041
:0C018000310500083105000831050008B9
:10018C0010B5054C237833B9044B13B10448AFF3C5
:10019C0000800123237010BD2C0000200000000003
:1001AC00B425000808B5034B1BB103490348AFF352
:1001BC00008008BD0000000030000020B4250008BD
:1001CC0080B588B000AF07F10C0300221A605A60AA
:1001DC009A60DA601A611D4BDB6C1C4A43F0040315
:1001EC00D3641A4BDB6C03F00403BB60BB68174B86
:1001FC00DB6C164A43F00103D364144BDB6C03F045
:10020C0001037B607B68114BDB6C104A43F00203EB
:10021C00D3640E4BDB6C03F002033B603B680022A3
:10022C0008210B4800F0F0FE0823FB6001233B6122
:10023C0000237B610023BB6107F10C0319460448C2
:10024C0000F070FD00BF2037BD4680BD001002409D
:10025C000004004880B582B000AF78600A4B1B7870
:10026C001A460821094800F0CFFE074B1B78012BDA
:10027C0014BF01230023DBB21A46034B1A7000BFD4
:10028C000837BD4680BD00BF480000200004004870
:10029C0080B500AF00F05AF900F00CF8FFF790FFB2
:1002AC0000F0BCF8024801F0F1FD02F0F5F8FEE7B1
:1002BC004C00002080B596B000AF07F11403442227
:1002CC000021184602F044F93B4600221A605A609D
:1002DC009A60DA601A614FF4007000F0CBFE0346AE
:1002EC00002B01D000F03CF800F0A6FE1B4BD3F81D
:1002FC0090301A4A23F01803C2F8903014237B6113
:10030C000123FB6101233B6300237B63A023BB63BD
:10031C0000233B6407F11403184600F001FF034669
:10032C00002B01D000F01CF80F233B6000237B60F6
:10033C000023BB600023FB6000233B613B46012193
:10034C00184601F04FFB0346002B01D000F008F8D3
:10035C0001F034FD00BF5837BD4680BD001002408F
:10036C0080B400AF72B600BFFEE7000080B483B06B
:10037C0000AF0F4B1B6E0E4A43F0010313660C4B80
:10038C001B6E03F001037B607B68094B9B6D084A75
:10039C0043F080539365064B9B6D03F080533B6099
:1003AC003B6800BF0C37BD465DF8047B704700BF4F
:1003BC000010024080B400AFFEE780B400AFFEE74F
:1003CC0080B400AFFEE780B400AFFEE780B400AFAE
:1003DC00FEE780B400AF00BFBD465DF8047B7047FC
:1003EC0080B400AF00BFBD465DF8047B704780B49D
:1003FC0000AF00BFBD465DF8047B704780B500AF11
:10040C0000F0F8F800BF80BD80B500AF024801F0E5
:10041C0091FD00BF80BD00BF4C00002080B584B0B2
:10042C0000AF3B1D00221A605A609A60144B154AAB
:10043C001A60134BC7225A60114B00229A60104B62
:10044C0047F6FF42DA600E4B80229A610C4801F0AD
:10045C00C5FC0346002B01D0FFF782FF00237B6015
:10046C000023FB603B1D1946054801F00FFF0346B6
:10047C00002B01D0FFF774FF00BF1037BD4680BDC5
:10048C004C0000200010004080B584B000AF7860B4
:10049C007B681B680D4A934213D10D4B9B6D0C4A24
:1004AC0043F0100393650A4B9B6D03F01003FB6044
:1004BC00FB6800220021362000F097F9362000F06E
:1004CC00B0F900BF1037BD4680BD00BF0010004022
:1004DC0000100240DFF834D000F026F80C480D492B
:1004EC000D4A002302E0D458C4500433C4188C4283
:1004FC00F9D30A4A0A4C002301E013600432A242E9
:10050C00FBD302F02DF8FFF7C3FEFEE700A000209E
:10051C00000000202C000020202600082C000020C9
:10052C00B0000020FEE7000080B400AF064BD3F80B
:10053C008830054A43F47003C2F8883000BFBD46CA
:10054C005DF8047B704700BF00ED00E080B582B021
:10055C0000AF0023FB71032000F03CF9002000F0F9
:10056C000DF80346002B02D00123FB7101E0FFF7CD
:10057C00FDFEFB7918460837BD4680BD80B584B0BA
:10058C0000AF78600023FB73174B1B78002B23D034
:10059C00164B1A68144B1B7819464FF47A73B3FB3D
:1005AC00F1F3B2FBF3F3184600F049F90346002BC4
:1005BC000FD17B680F2B09D8002279684FF0FF30E0
:1005CC0000F013F90A4A7B68136007E00123FB7300
:1005DC0004E00123FB7301E00123FB73FB7B184652
:1005EC001037BD4680BD00BF080000200000002071
:1005FC000400002080B400AF064B1B781A46064B53
:10060C001B681344044A136000BFBD465DF8047BAD
:10061C00704700BF080000209800002080B400AF95
:10062C00034B1B681846BD465DF8047B704700BF42
:10063C009800002080B485B000AF78607B6803F030
:10064C000703FB600C4BDB68BB60BA684FF6FF031B
:10065C001340BB60FB681A02BB68134343F0BF63D3
:10066C0043F40033BB60044ABB68D36000BF14374B
:10067C00BD465DF8047B704700ED00E080B400AF30
:10068C00044BDB681B0A03F007031846BD465DF8F4
:10069C00047B704700ED00E080B483B000AF0346EC
:1006AC00FB7197F90730002B0BDBFB7903F01F0272
:1006BC00074997F907305B09012000FA02F241F86B
:1006CC00232000BF0C37BD465DF8047B704700BF8C
:1006DC0000E100E080B483B000AF03463960FB71E9
:1006EC0097F90730002B0ADB3B68DAB20C4997F913
:1006FC0007301201D2B20B4483F800230AE03B68A6
:10070C00DAB20849FB7903F00F03043B1201D2B2B1
:10071C000B441A7600BF0C37BD465DF8047B70475E
:10072C0000E100E000ED00E080B489B000AFF860BB
:10073C00B9607A60FB6803F00703FB61FB69C3F1E6
:10074C000703042B28BF0423BB61FB690433062B6E
:10075C0002D9FB69033B00E000237B614FF0FF32C1
:10076C00BB6902FA03F3DA43BB681A407B699A400F
:10077C004FF0FF317B6901FA03F3D9437B680B40DF
:10078C00134318462437BD465DF8047B70470000C0
:10079C0080B582B000AF78607B68013BB3F1807F9D
:1007AC0001D301230FE00A4A7B68013B53600F2100
:1007BC004FF0FF30FFF78EFF054B00229A60044B81
:1007CC0007221A60002318460837BD4680BD00BFBB
:1007DC0010E000E080B582B000AF78607868FFF779
:1007EC0029FF00BF0837BD4680BD80B586B000AF7D
:1007FC000346B9607A60FB7300237B61FFF73EFF11
:10080C0078617A68B9687869FFF78EFF024697F9C4
:10081C000F3011461846FFF75DFF00BF1837BD4675
:10082C0080BD80B582B000AF0346FB7197F90730ED
:10083C001846FFF731FF00BF0837BD4680BD80B5B5
:10084C0082B000AF78607868FFF7A2FF03461846C5
:10085C000837BD4680BD000080B586B000AFF8609B
:10086C00B960C7E9002300233B612F4B1B78012B98
:10087C0001D1022353E02C4B01221A704CF2503060
:10088C0000F078F80346FB75FB7D002B43D1264B1B
:10089C0000225A60254B1B6803F48063002B09D09F
:1008AC00224B1B68214A23F4806313601E4B0222E7
:1008BC001A7702E01C4B00221A77FB68002B07D139
:1008CC00D7E90023B86800F0ADF801233B6110E0D4
:1008DC00FB68012B02D0FB68022B0AD13B6819463E
:1008EC00B86800F0C5F8FB68022B02D14FF48023E6
:1008FC003B614CF2503000F03DF80346FB753B6910
:10090C00002B06D0094B5A693B69DB43074913405E
:10091C004B6100F0BDF9044B00221A70FB7D1846A8
:10092C001837BD4680BD00BF0C00002000200240DF
:10093C0080B483B000AF0023FB710B4B5B69002BC1
:10094C000BDA094B094A9A60074B094A9A60064B25
:10095C005B69002B01DA0123FB71FB7918460C371C
:10096C00BD465DF8047B70470020024023016745BB
:10097C00AB89EFCD80B584B000AF7860FFF74EFE49
:10098C00F8600DE07B68B3F1FF3F09D0FFF746FE3E
:10099C000246FB68D31A7A689A4201D8032336E0E0
:1009AC001D4B1B6903F48033002BEBD11A4B1A69D6
:1009BC001A4B1340BB60BB68002B1ED0184B5A68F7
:1009CC00BB681343164A5360BB6803F04043002BCB
:1009DC0007D0114B9A69BB6803F040430E4913438F
:1009EC008B61BB6823F04043002B04D00A4ABB68E0
:1009FC0023F040431361012309E0074B1B6903F00B
:100A0C000103002B02D0044B01221A61002318466B
:100A1C001037BD4680BD00BF00200240FAC3020063
:100A2C000C00002080B485B000AFF860C7E900234B
:100A3C000E4B5B690D4A43F001035361FB683A6846
:100A4C001A60BFF36F8F00BFD7E900014FF00002AF
:100A5C004FF000030A000023F968043113460B60C1
:100A6C0000BF1437BD465DF8047B70470020024080
:100A7C0080B489B000AF786039604023FB777B6825
:100A8C00BB613B687B61144B5B69134A43F4802365
:100A9C005361EFF31083FB60FB683B6172B600BFE0
:100AAC007B691A68BB691A60BB690433BB617B69DB
:100ABC0004337B61FB7F013BFB77FB7F002BEFD18A
:100ACC003B69BB60BB6883F3108800BF00BF243751
:100ADC00BD465DF8047B70470020024080B584B0B1
:100AEC0000AF78603960474B1B78012B01D1022392
:100AFC0083E0444B01221A704CF25030FFF73AFF5E
:100B0C000346FB73FB7B002B73D13E4B00225A60D8
:100B1C003D4B1B6803F40073002B13D03A4B1B683E
:100B2C0003F48063002B09D0374B1B68364A23F43F
:100B3C0080631360334B03221A7716E0314B01228A
:100B4C001A7712E0304B1B6803F48063002B09D03A
:100B5C002D4B1B682C4A23F480631360294B022213
:100B6C001A7702E0274B00221A777B681B68012B4F
:100B7C0011D17B685B68184600F048F84CF2503095
:100B8C00FFF7F8FE0346FB731F4B5B691E4A23F00D
:100B9C00040353612BE03B684FF0FF321A607B6813
:100BAC009B68BB601BE07B685B681946B86800F00B
:100BBC004BF84CF25030FFF7DDFE0346FB73124B43
:100BCC005B69114A23F4FD735361FB7B002B03D04B
:100BDC003B68BA681A600AE0BB680133BB607B688B
:100BEC009A687B68DB681344BA689A42DBD300F0DE
:100BFC004FF8044B00221A70FB7B18461037BD4689
:100C0C0080BD00BF0C0000200020024080B483B0E7
:100C1C0000AF78607B6803F00103002B05D0094B13
:100C2C005B69084A43F004035361064B5B69054A50
:100C3C0043F48033536100BF0C37BD465DF8047B31
:100C4C00704700BF0020024080B483B000AF7860D2
:100C5C0039600E4B5B6923F4FC727B68DB0003F498
:100C6C00FF630A4913434B61084B5B69074A43F026
:100C7C0002035361054B5B69044A43F480335361AF
:100C8C0000BF0C37BD465DF8047B70470020024066
:100C9C0080B483B000AF214B1B7FFB71FB79012B20
:100CAC0002D0FB79032B17D11D4B1B681C4A23F474
:100CBC00007313601A4B1B68194A43F400631360EA
:100CCC00174B1B68164A23F400631360144B1B6804
:100CDC00134A43F400731360FB79022B02D0FB79A7
:100CEC00032B11D10E4B1B680D4A43F48053136038
:100CFC000B4B1B680A4A23F480531360084B1B6888
:100D0C00074A43F480631360044B00221A7700BF38
:100D1C000C37BD465DF8047B704700BF0C0000200B
:100D2C000020024080B487B000AF786039600023A7
:100D3C007B614EE13B681A6801217B6901FA03F380
:100D4C001340FB60FB68002B00F040813B685B6844
:100D5C0003F00303012B05D03B685B6803F003032E
:100D6C00022B30D17B689B683B617B695B00032263
:100D7C0002FA03F3DB433A6913403B613B68DA68E0
:100D8C007B695B0002FA03F33A6913433B617B68AE
:100D9C003A699A607B685B683B6101227B6902FA65
:100DAC0003F3DB433A6913403B613B685B681B0907
:100DBC0003F001027B6902FA03F33A6913433B61C6
:100DCC007B683A695A603B685B6803F00303032B4A
:100DDC0017D07B68DB683B617B695B00032202FAFE
:100DEC0003F3DB433A6913403B613B689A687B69C8
:100DFC005B0002FA03F33A6913433B617B683A697F
:100E0C00DA603B685B6803F00303022B23D17B6938
:100E1C00DA087B68083253F822303B617B6903F0B7
:100E2C0007039B000F2202FA03F3DB433A691340DA
:100E3C003B613B681A697B6903F007039B0002FA6C
:100E4C0003F33A6913433B617B69DA087B68083228
:100E5C00396943F822107B681B683B617B695B0036
:100E6C00032202FA03F3DB433A6913403B613B680C
:100E7C005B6803F003027B695B0002FA03F33A69D7
:100E8C0013433B617B683A691A603B685B6803F407
:100E9C004033002B00F09A80554B1B6E544A43F0A4
:100EAC0001031366524B1B6E03F00103BB60BB685E
:100EBC00504A7B699B08023352F823303B617B69B3
:100ECC0003F003039B000F2202FA03F3DB433A699E
:100EDC0013403B617B68B3F1904F13D07B68464A5B
:100EEC0093420DD07B68454A934207D07B68444AB5
:100EFC00934201D1032306E0072304E0022302E01E
:100F0C00012300E000237A6902F00302920093406F
:100F1C003A6913433B6137497B699B0802333A6951
:100F2C0041F82320374B9B683B61FB68DB433A69F4
:100F3C0013403B613B685B6803F48013002B03D0C8
:100F4C003A69FB6813433B612E4A3B6993602D4B16
:100F5C00DB683B61FB68DB433A6913403B613B68F0
:100F6C005B6803F40013002B03D03A69FB6813434E
:100F7C003B61244A3B69D360224B5B683B61FB6855
:100F8C00DB433A6913403B613B685B6803F4003315
:100F9C00002B03D03A69FB6813433B61194A3B6948
:100FAC005360184B1B683B61FB68DB433A69134089
:100FBC003B613B685B6803F48033002B03D03A69D8
:100FCC00FB6813433B610F4A3B6913607B69013338
:100FDC007B613B681A687B6922FA03F3002B7FF470
:100FEC00A9AE00BF00BF1C37BD465DF8047B70473F
:100FFC0000100240000001400004004800080048B6
:10100C00000C00480004014080B483B000AF78604D
:10101C000B467B8013467B707B78002B03D07A8841
:10102C007B689A6102E07A887B689A6200BF0C3711
:10103C00BD465DF8047B704780B400AF054B1B6860
:10104C00044A43F48073136000BFBD465DF8047B13
:10105C00704700BF0070004080B400AF044B1B68A9
:10106C0003F4C0631846BD465DF8047B704700BFAF
:10107C000070004080B485B000AF78607B68B3F539
:10108C00007F30D1234B1B6803F4C063B3F5007FA2
:10109C0038D0204B1B6823F4C0631E4A43F4007302
:1010AC0013601D4B1B68322202FB03F31B4AA2FB8D
:1010BC0003239B0C0133FB6002E0FB68013BFB60EC
:1010CC00144B5B6903F48063B3F5806F02D1FB684A
:1010DC00002BF2D10F4B5B6903F48063B3F5806F87
:1010EC0010D103230FE00B4B1B6803F4C063B3F563
:1010FC00806F07D0074B1B6823F4C063054A43F489
:10110C0080631360002318461437BD465DF8047BDA
:10111C00704700BF007000400000002083DE1B43BE
:10112C0080B58AB000AF78607B68002B02D10123B8
:10113C0000F04FBC974B9B6803F00C033B62954B44
:10114C00DB6803F00303FB617B681B6803F010038F
:10115C00002B00F0E6803B6A002B07D03B6A0C2B7F
:10116C0040F08D80FB69012B40F08980894B1B6816
:10117C0003F00203002B06D07B68DB69002B02D145
:10118C00012300F026BC7B685A6A824B1B6803F073
:10119C000803002B04D07F4B1B6803F0F00305E021
:1011AC007C4BD3F894301B0903F0F003934224D208
:1011BC007B685B6A184600F0A1FD0346002B02D049
:1011CC00012300F006BC734B1B68724A43F0080302
:1011DC001360704B1B6823F0F0027B685B6A6D49EF
:1011EC0013430B606B4B5B6823F47F427B681B6A79
:1011FC001B02684913434B6025E0664B1B68654A2C
:10120C0043F008031360634B1B6823F0F0027B6808
:10121C005B6A604913430B605E4B5B6823F47F424F
:10122C007B681B6A1B025B4913434B603B6A002BB8
:10123C0009D17B685B6A184600F060FD0346002B01
:10124C0001D00123C5E300F0CDFC0246514B9B6855
:10125C001B0903F00F035049CB5C03F01F0322FA68
:10126C0003F34E4A13604E4B1B681846FFF786F982
:10127C000346FB75FB7D002B52D0FB7DA9E37B68FD
:10128C00DB69002B32D0434B1B68424A43F001030D
:10129C001360FFF7C3F9B86108E0FFF7BFF9024626
:1012AC00BB69D31A022B01D9032392E3394B1B6878
:1012BC0003F00203002BF0D0364B1B68354A43F089
:1012CC0008031360334B1B6823F0F0027B685B6AE6
:1012DC00304913430B602F4B5B6823F47F427B68D0
:1012EC001B6A1B022B4913434B601AE0294B1B68EA
:1012FC00284A23F001031360FFF790F9B86108E066
:10130C00FFF78CF90246BB69D31A022B01D90323D0
:10131C005FE3204B1B6803F00203002BF0D100E0CD
:10132C0000BF7B681B6803F00103002B73D03B6A82
:10133C00082B05D03B6A0C2B0ED1FB69032B0BD170
:10134C00144B1B6803F40033002B63D07B685B6881
:10135C00002B5FD101233CE37B685B68B3F5803FD6
:10136C0006D10C4B1B680B4A43F48033136025E009
:10137C007B685B68B3F5A02F14D1064B1B68054A3C
:10138C0043F480231360034B1B68024A43F48033FD
:10139C00136013E000100240D82500080000002064
:1013AC00040000208F4B1B688E4A23F4803313609B
:1013BC008C4B1B688B4A23F4802313607B685B681F
:1013CC00002B13D0FFF72AF9B86108E0FFF726F9D4
:1013DC000246BB69D31A642B01D90323F9E2814B72
:1013EC001B6803F40033002BF0D014E0FFF716F960
:1013FC00B86108E0FFF712F90246BB69D31A642BF7
:10140C0001D90323E5E2774B1B6803F40033002B6F
:10141C00F0D100E000BF7B681B6803F00203002BD7
:10142C0060D03B6A042B05D03B6A0C2B19D1FB69AD
:10143C00022B16D16B4B1B6803F48063002B05D079
:10144C007B68DB68002B01D10123C2E2654B5B6832
:10145C0023F0FE427B681B691B06624913434B60F9
:10146C0040E07B68DB68002B23D05E4B1B685D4A39
:10147C0043F480731360FFF7D1F8B86108E0FFF70D
:10148C00CDF80246BB69D31A022B01D90323A0E283
:10149C00544B1B6803F48063002BF0D0514B5B68FA
:1014AC0023F0FE427B681B691B064E4913434B60BD
:1014BC0018E04C4B1B684B4A23F480731360FFF706
:1014CC00ADF8B86108E0FFF7A9F80246BB69D31A7A
:1014DC00022B01D903237CE2424B1B6803F480638B
:1014EC00002BF0D17B681B6803F00803002B00F085
:1014FC0082807B685B69002B5FD03A4BD3F89430C9
:10150C003B617B689A693B6903F010039A4237D0C0
:10151C003B6903F00203002B06D03B6903F0010387
:10152C00002B01D1012354E23B6903F00103002B92
:10153C001BD02C4BD3F894302A4A23F00103C2F869
:10154C009430FFF76BF8B86108E0FFF767F80246D4
:10155C00BB69D31A112B01D903233AE2214BD3F8DF
:10156C00943003F00203002BEFD11E4BD3F89430D0
:10157C0023F010027B689B691A491343C1F894301D
:10158C00184BD3F89430174A43F00103C2F8943047
:10159C00FFF744F8B86108E0FFF740F80246BB6972
:1015AC00D31A112B01D9032313E20E4BD3F8943029
:1015BC0003F00203002BEFD01DE00A4BD3F894305C
:1015CC00084A23F00103C2F89430FFF727F8B861FA
:1015DC000AE0FFF723F80246BB69D31A112B03D993
:1015EC000323F6E100100240A94BD3F8943003F02A
:1015FC000203002BEDD17B681B6803F00403002B66
:10160C0000F0BD80002387F82730A14B9B6D03F0C1
:10161C008053002B0ED19E4B9B6D9D4A43F0805303
:10162C0093659B4B9B6D03F08053FB60FB68012320
:10163C0087F82730974B1B6803F48073002B18D165
:10164C00944B1B68934A43F480731360FEF7E6FFD8
:10165C00B86108E0FEF7E2FF0246BB69D31A022B21
:10166C0001D90323B5E18B4B1B6803F48073002B6A
:10167C00F0D07B689B6803F00103002B2CD0844BCB
:10168C00D3F8903023F080027B689B6803F08003D2
:10169C007F491343C1F890307B689B6803F00403C7
:1016AC00002B10D07A4BD3F89030794A43F00403D6
:1016BC00C2F89030764BD3F89030754A43F0010362
:1016CC00C2F8903018E0724BD3F89030704A43F067
:1016DC000103C2F890300FE06D4BD3F890306C4A98
:1016EC0023F00103C2F89030694BD3F89030684A6C
:1016FC0023F00403C2F890307B689B68002B16D053
:10170C00FEF78CFFB8610AE0FEF788FF0246BB6962
:10171C00D31A41F28832934201D9032359E15C4B2D
:10172C00D3F8903003F00203002BEDD01DE0FEF750
:10173C0075FFB8610AE0FEF771FF0246BB69D31A68
:10174C0041F28832934201D9032342E1504BD3F842
:10175C00903003F00203002BEDD14D4BD3F89030B9
:10176C004B4A23F08003C2F8903097F82730012BB6
:10177C0005D1474B9B6D464A23F0805393657B689C
:10178C001B6803F02003002B3CD07B689B6A002B6A
:10179C001CD03F4BD3F898303D4A43F00103C2F8BC
:1017AC009830FEF73BFFB86108E0FEF737FF0246C2
:1017BC00BB69D31A022B01D903230AE1344BD3F8AA
:1017CC00983003F00203002BEFD01BE0304BD3F822
:1017DC0098302F4A23F00103C2F89830FEF71EFF11
:1017EC00B86108E0FEF71AFF0246BB69D31A022B58
:1017FC0001D90323EDE0264BD3F8983003F0020314
:10180C00002BEFD17B68DB6A002B00F0E1807B685A
:10181C00DB6A022B40F0B5801D4BDB68FB61FB697A
:10182C0003F003027B681B6B9A4224D1FB6903F023
:10183C0070027B685B6B013B1B019A421BD1FB69FD
:10184C0003F4FE427B689B6B1B029A4213D1FB692B
:10185C0003F4C0027B68DB6B5B08013B5B059A42BF
:10186C0009D1FB6903F0C0627B681B6C5B08013B10
:10187C005B069A425FD03B6A0C2B5AD0044B1B6818
:10188C00034A23F080731360FEF7C8FEB8610CE0C6
:10189C000010024000700040FEF7C0FE0246BB691B
:1018AC00D31A022B01D9032393E04C4B1B6803F092
:1018BC000073002BF0D1494BDA68494B13407A681E
:1018CC00116B7A68526B013A120111437A68926B70
:1018DC00120211437A68D26B5208013A5205114335
:1018EC007A68126C5208013A52060A433B49134378
:1018FC00CB603A4B1B68394A43F080731360374B0B
:10190C00DB68364A43F08073D360FEF787FEB8611C
:10191C0008E0FEF783FE0246BB69D31A022B01D9FD
:10192C00032356E02D4B1B6803F00073002BF0D003
:10193C004EE001234DE0294B1B6803F00073002B94
:10194C0046D1264B1B68254A43F080731360234B0A
:10195C00DB68224A43F08073D360FEF75FFEB86108
:10196C0008E0FEF75BFE0246BB69D31A022B01D9D5
:10197C0003232EE0194B1B6803F00073002BF0D0EF
:10198C0026E03B6A0C2B21D0144B1B68134A23F026
:10199C0080731360FEF742FEB86108E0FEF73EFE6E
:1019AC000246BB69D31A022B01D9032311E00B4B5E
:1019BC001B6803F00073002BF0D1084BDB68074A5F
:1019CC0023F0887323F00303D36001E0012300E0CC
:1019DC00002318462837BD4680BD00BF00100240CA
:1019EC008C809FF980B584B000AF786039607B68DB
:1019FC00002B01D10123E7E0754B1B6803F00703B3
:101A0C003A689A4210D9724B1B6823F0070270494E
:101A1C003B6813430B606E4B1B6803F007033A687B
:101A2C009A4201D00123CFE07B681B6803F00203CC
:101A3C00002B10D07B689A68664B9B6803F0F00310
:101A4C009A4208D9634B9B6823F0F0027B689B6831
:101A5C00604913438B607B681B6803F00103002B08
:101A6C004CD07B685B68032B07D15A4B1B6803F087
:101A7C000073002B21D10123A6E07B685B68022B4D
:101A8C0007D1544B1B6803F40033002B15D10123F1
:101A9C009AE07B685B68002B07D14E4B1B6803F008
:101AAC000203002B09D101238EE04A4B1B6803F47F
:101ABC008063002B01D1012386E0464B9B6823F009
:101ACC0003027B685B68434913438B60FEF7A6FDFA
:101ADC00F8600AE0FEF7A2FD0246FB68D31A41F259
:101AEC008832934201D903236EE03A4B9B6803F092
:101AFC000C027B685B689B009A42EBD17B681B688D
:101B0C0003F00203002B10D07B689A68314B9B6862
:101B1C0003F0F0039A4208D22E4B9B6823F0F0029C
:101B2C007B689B682B4913438B60294B1B6803F024
:101B3C0007033A689A4210D2254B1B6823F0070220
:101B4C0023493B6813430B60214B1B6803F00703CD
:101B5C003A689A4201D0012336E07B681B6803F097
:101B6C000403002B08D01B4B9B6823F4E0627B68BA
:101B7C00DB68184913438B607B681B6803F0080310
:101B8C00002B09D0134B9B6823F460527B681B69B4
:101B9C00DB00104913438B6000F024F802460D4B18
:101BAC009B681B0903F00F030B49CB5C03F01F036D
:101BBC0022FA03F3094A1360094B1B681846FEF717
:101BCC00DDFC0346FB72FB7A18461037BD4680BD20
:101BDC000020024000100240D82500080000002020
:101BEC000400002080B489B000AF0023FB61002307
:101BFC00BB613E4B9B6803F00C033B613B4BDB68CA
:101C0C0003F00303FB603B69002B05D03B690C2BF5
:101C1C0021D1FB68012B1ED1344B1B6803F0080348
:101C2C00002B07D1314BD3F894301B0A03F00F0370
:101C3C00FB6105E02D4B1B681B0903F00F03FB61D7
:101C4C002B4AFB6952F82330FB613B69002B0DD109
:101C5C00FB69BB610AE03B69042B02D1254BBB61DC
:101C6C0004E03B69082B01D1234BBB613B690C2B76
:101C7C0034D11E4BDB6803F00303BB60BB68022B43
:101C8C0003D0BB68032B03D005E01A4B7B6105E046
:101C9C00194B7B6102E0FB697B6100BF134BDB6876
:101CAC001B0903F0070301337B60104BDB681B0A35
:101CBC0003F07F037A6903FB02F27B68B2FBF3F358
:101CCC007B610A4BDB685B0E03F0030301335B00A3
:101CDC003B607A693B68B2FBF3F3BB61BB691846A6
:101CEC002437BD465DF8047B704700BF00100240EE
:101CFC00E82500080024F40000127A0080B586B0B4
:101D0C0000AF786000233B612A4B9B6D03F080533E
:101D1C00002B03D0FFF7A0F9786114E0254B9B6DE5
:101D2C00244A43F080539365224B9B6D03F0805300
:101D3C00FB60FB68FFF790F978611E4B9B6D1D4AA9
:101D4C0023F0805393657B69B3F5007F0BD17B68DF
:101D5C00802B19D97B68A02B02D902233B6113E09D
:101D6C0001233B6110E07B68802B02D903233B618C
:101D7C000AE07B68802B02D102233B6104E07B6884
:101D8C00702B01D101233B610B4B1B6823F0070225
:101D9C0009493B6913430B60074B1B6803F00703AE
:101DAC003A699A4201D0012300E000231846183703
:101DBC00BD4680BD001002400020024080B400AF40
:101DCC00054B1B68044A43F00403136000BFBD4677
:101DDC005DF8047B704700BF0010024080B582B0F4
:101DEC0000AF78607B68002B01D1012349E07B6850
:101DFC0093F83D30DBB2002B06D17B68002283F8D0
:101E0C003C207868FEF740FB7B68022283F83D207B
:101E1C007B681A687B6804331946104600F0D2F9C7
:101E2C007B68012283F848207B68012283F83E20DE
:101E3C007B68012283F83F207B68012283F84020D5
:101E4C007B68012283F841207B68012283F84220C1
:101E5C007B68012283F843207B68012283F84420AD
:101E6C007B68012283F845207B68012283F8462099
:101E7C007B68012283F847207B68012283F83D2090
:101E8C00002318460837BD4680BD000080B485B0DD
:101E9C0000AF78607B6893F83D30DBB2012B01D04A
:101EAC0001233BE07B68022283F83D207B681B68A2
:101EBC00DA687B681B6842F00102DA607B681B6899
:101ECC00194A934209D07B681B68B3F1804F04D048
:101EDC007B681B68154A934215D17B681B689A680E
:101EEC00134B1340FB60FB68062B15D0FB68B3F556
:101EFC00803F11D07B681B681A687B681B6842F0B6
:101F0C0001021A6008E07B681B681A687B681B6812
:101F1C0042F001021A6000E000BF0023184614379B
:101F2C00BD465DF8047B7047002C01400040014029
:101F3C000700010080B582B000AF78607B681B6839
:101F4C001B6903F00203022B22D17B681B68DB6840
:101F5C0003F00203022B1BD17B681B686FF002029B
:101F6C001A617B6801221A777B681B689B6903F0F6
:101F7C000303002B03D0786800F005F905E07868BE
:101F8C0000F0F7F8786800F008F97B6800221A77FF
:101F9C007B681B681B6903F00403042B22D17B684C
:101FAC001B68DB6803F00403042B1BD17B681B68E4
:101FBC006FF004021A617B6802221A777B681B6837
:101FCC009B6903F44073002B03D0786800F0DBF8B6
:101FDC0005E0786800F0CDF8786800F0DEF87B68F2
:101FEC0000221A777B681B681B6903F00803082B17
:101FFC0022D17B681B68DB6803F00803082B1BD11C
:10200C007B681B686FF008021A617B6804221A77E0
:10201C007B681B68DB6903F00303002B03D0786833
:10202C0000F0B1F805E0786800F0A3F8786800F0EB
:10203C00B4F87B6800221A777B681B681B6903F075
:10204C001003102B22D17B681B68DB6803F0100394
:10205C00102B1BD17B681B686FF010021A617B6818
:10206C0008221A777B681B68DB6903F44073002B2A
:10207C0003D0786800F087F805E0786800F079F80C
:10208C00786800F08AF87B6800221A777B681B68F6
:10209C001B6903F00103012B0ED17B681B68DB6805
:1020AC0003F00103012B07D17B681B686FF0010261
:1020BC001A617868FEF7CEF87B681B681B6903F021
:1020CC008003802B0ED17B681B68DB6803F08003D8
:1020DC00802B07D17B681B686FF080021A617868CF
:1020EC0000F044F97B681B681B6903F48073B3F53B
:1020FC00807F0ED17B681B68DB6803F08003802B2C
:10210C0007D17B681B686FF480721A61786800F0E5
:10211C0037F97B681B681B6903F04003402B0ED119
:10212C007B681B68DB6803F04003402B07D17B689E
:10213C001B686FF040021A61786800F038F87B6811
:10214C001B681B6903F02003202B0ED17B681B68D6
:10215C00DB6803F02003202B07D17B681B686FF032
:10216C0020021A61786800F0F7F800BF0837BD4606
:10217C0080BD80B483B000AF786000BF0C37BD4623
:10218C005DF8047B704780B483B000AF786000BF0B
:10219C000C37BD465DF8047B704780B483B000AF4C
:1021AC00786000BF0C37BD465DF8047B704780B487
:1021BC0083B000AF786000BF0C37BD465DF8047B80
:1021CC007047000080B485B000AF786039607B68E0
:1021DC001B68FB607B682A4A934203D07B68B3F18F
:1021EC00804F08D1FB6823F07003FB603B685B6891
:1021FC00FA681343FB607B68214A93420BD07B68DF
:10220C00B3F1804F07D07B681E4A934203D07B68A2
:10221C001D4A934208D1FB6823F44073FB603B6872
:10222C00DB68FA681343FB60FB6823F080023B68B1
:10223C005B691343FB607B68FA681A603B689A68B9
:10224C007B68DA623B681A687B689A627B680C4A26
:10225C00934207D07B680B4A934203D07B680A4AAF
:10226C00934203D13B681A697B681A637B6801222D
:10227C005A6100BF1437BD465DF8047B704700BF40
:10228C00002C0140004001400044014080B485B066
:10229C0000AF786039607B6893F83C30012B01D13A
:1022AC0002234FE07B68012283F83C207B680222EA
:1022BC0083F83D207B681B685B68FB607B681B6850
:1022CC009B68BB607B681B68214A934208D1FB6802
:1022DC0023F47003FB603B685B68FA681343FB6094
:1022EC00FB6823F07003FB603B681B68FA681343C0
:1022FC00FB607B681B68FA685A607B681B68144A31
:10230C00934209D07B681B68B3F1804F04D07B6883
:10231C001B68104A93420CD1BB6823F08003BB604E
:10232C003B689B68BA681343BB607B681B68BA68E0
:10233C009A607B68012283F83D207B68002283F839
:10234C003C20002318461437BD465DF8047B7047CB
:10235C00002C01400040014080B483B000AF786095
:10236C0000BF0C37BD465DF8047B704780B483B06A
:10237C0000AF786000BF0C37BD465DF8047B70473A
:10238C0080B483B000AF786000BF0C37BD465DF8F9
:10239C00047B704780B586B000AF0023BB6022235E
:1023AC003B611C237B61FEF7C3FA00237B603A1D63
:1023BC0007F1080311461846FEF790FB00BF1837CB
:1023CC00BD4680BD80B586B000AF0023BB603E2308
:1023DC003B6101237B61FEF7ABFA00237B603A1D66
:1023EC0007F1080311461846FEF778FB0346002B4D
:1023FC0001D0012300E0002318461837BD4680BDEC
:10240C0080B58AB000AF0023BB6006233B611C2360
:10241C007B61FEF78DFA00237B603A1D07F1080300
:10242C0011461846FEF75AFB0346002B01D0012338
:10243C0027E0164B7B62164B3B62164B5B680733EF
:10244C00DB08BB61FEF774FA0023FB6114E03B6A06
:10245C00D3E90023796A0020FEF7FEF90346002B2E
:10246C0001D001230DE07B6A08337B623B6A0833A1
:10247C003B62FB690133FB61FA69BB699A42E6D3A3
:10248C00002318462837BD4680BD00BF0030000829
:10249C00001001089C00002080B582B000AF1D4BDD
:1024AC001D4A07CA83E8070004221C49194800F09A
:1024BC003FF80346002B15D1164B9B68002B0FD011
:1024CC00144B5B68002B0BD0124B5B68B3F5604F61
:1024DC0006D8FFF795FF0346002B01D1FFF75AFFF3
:1024EC00FFF770FF0E4B1B680E4A13600D4B1B68F9
:1024FC001A460D4B1A600D4B1B687B607B6883F38F
:10250C00088800BF084B1B68984700BF0837BD46BA
:10251C0080BD00BF9C00002000F00108D025000801
:10252C0004300008AC000020A80000200030000897
:10253C0010B501390244904201D1002005E0037826
:10254C0011F8014FA34201D0181B10BD0130F2E766
:10255C0002440346934200D1704703F8011BF9E78C
:10256C0070B50D4D0D4C641BA4100026A64209D16C
:10257C000B4D0C4C00F018F8641BA4100026A6425E
:10258C0005D170BD55F8043B98470136EEE755F878
:10259C00043B98470136F2E7182600081826000875
:1025AC00182600081C260008F8B500BFF8BC08BCAB
:1025BC009E467047F8B500BFF8BC08BC9E467047F5
:1025CC004F4B00005342414E000000000000000041
:1025DC00000000000102030406070809A0860100A0
:1025EC00400D0300801A060000350C0040420F001D
:1025FC0080841E0000093D0000127A000024F400C3
:0C260C0000366E010048E801006CDC02A2
:04261800B101000804
:04261C008D01000824
:1026200000093D0010000000010000000000000053
:102630000000000000000000000000000100000099
:0C2640000000000000000000000000008E
:04000005080004E10A
:00000001FF
